:020000040800F2
:10000000E05B002085020008F14A0008A33D0008DB
:10001000FD4900081B0D0008755B0008000000008A
:10002000000000000000000000000000C501000802
:10003000170F00080000000021020008954E00087C
:100040009F0200089F0200089F0200089F0200080C
:100050009F0200089F0200089F0200089F020008FC
:100060009F0200089F0200089F0200089F020008EC
:10007000ED0D00089F020008FD0D00089F0200081A
:100080009F0200089F020008590B0008410D00085C
:10009000210D0008310D00089F0200089F02000892
:1000A0009F020008A14F00089F0200089F0200085D
:1000B0009F020008B14F00089F0200089F0200083D
:1000C0009F0200089F0200089F0200089F0200088C
:1000D0009F020008E55A00089F020008F55A000830
:1000E0009F0200089F0200089F0200089F0200086C
:1000F0009F0200089F0200089F0200089F0200085C
:100100009F0200089F0200089F0200089F0200084B
:100110009F0200089F0200089F020008C14F0008CC
:100120009F0200089F0200089F0200089F0200082B
:100130009F0200089F0200089F020008710D00083E
:10014000510D0008610D00089F0200089F02000881
:100150009F0200089F0200089F020008095B000838
:100160009F0200089F0200089F0200089F020008EB
:100170009F0200089F0200089F0200080000000084
:100180009F0200089F0200089F0200089F020008CB
:100190009F0200089F0200089F0200089F020008BB
:1001A00000000000000000009F020008DFF810D0EF
:1001B00000F034FC00480047CD7E0008AFF300801B
:1001C000E05B00202C4B19680868B0E8F04F80F322
:1001D0000988BFF36F8F4FF0000080F311887047DC
:1001E0000000000008480068006880F308884FF0AD
:1001F000000080F3148862B661B6BFF34F8FBFF37F
:100200006F8F00DF00BF00BF08ED00E0DFF80C00DB
:10021000016841F470010160704700BF88ED00E0A3
:10022000EFF30980BFF36F8F134B1A681EF0100FA6
:1002300008BF20ED108A20E9F04F106009B44FF09C
:10024000500080F31188BFF34F8FBFF36F8F09F019
:1002500093FF4FF0000080F3118809BC196808680B
:10026000B0E8F04F1EF0100F08BFB0EC108A80F31A
:100270000988BFF36F8F704758000020EFF30580A7
:10028000704700000648804706480047FEE7FEE743
:10029000FEE7FEE7FEE7FEE7FEE7FEE7FEE7FEE736
:1002A000854F0008AD0100082DE9F05F05460020EC
:1002B00092469B4688460646814640241BE02846D7
:1002C00041464746224600F0BAFA53465A46C01AFB
:1002D000914110D311461846224600F0A1FA2D1A7A
:1002E00067EB01084F4622460120002100F098FAF2
:1002F00017EB00094E41201EA4F10104DFDC484643
:1003000031462A464346BDE8F09F00000649074AA9
:100310000868504343F239021044086040087047AF
:100320000149086070470000D80100206D4EC641A9
:1003300040EA01039B0703D009E008C9121F08C067
:10034000042AFAD203E011F8013B00F8013B521EE7
:10035000F9D27047D2B201E000F8012B491EFBD25E
:1003600070470022F6E710B513460A4604461946C0
:10037000FFF7F0FF204610BD421E12F8013F002B90
:10038000FBD111F8013B02F8013B002BF9D170477A
:1003900070B5064605F06EFC046805460A22002189
:1003A000304600F06EFA2C6070BD2DE9FE4F80469D
:1003B00081EA0300C00F0C46009021F0004123F0B9
:1003C0000045B8EB0200A94105D2404621469046BF
:1003D0001C460B46024623F00040104347D0270D31
:1003E000C7F30A00C3F30A510290401A0190402853
:1003F0006BDAC3F3130040F4801B0098924620B1DF
:100400000023D2EB030A63EB0B0B01985946C0F1B2
:100410004002504600F004FA06460D465046594642
:10042000019A00F01CFA10EB08006141002487EAF1
:10043000115284EAE7731A4340D0009A62B3019ADA
:10044000012A4FEA075215DC001B61EB02014FF055
:10045000004202EA0752CDE90042001C41F580113A
:1004600032462B4600F08BFA03B0BDE8F08F4046D1
:100470002146F9E7001B61EB0201001C41F58013E6
:1004800000185B412018A2F5001747EB030140EA72
:10049000D570B6196D4111E06D084FEA360645EA90
:1004A000C0754FEA0752001B61EB0201001C41F5C9
:1004B000801149084FEA30000019514132462B465D
:1004C00003B0BDE8F04F00F04BBA009801224000A5
:1004D0000023D0EB020263EBE073009821464FEA61
:1004E000E074B8EB000061EB0401E9E783F000433E
:1004F0005BE781F0004158E72DE9FE4F81EA0304F4
:1005000004F0004421F0004100944FF0000B23F070
:10051000004350EA01045ED052EA03045BD0C3F307
:100520000A54C1F30A552C44A4F2F3340194A0FBFD
:100530000254C1F3130141F48011C3F3130343F4D4
:10054000801301FB024400FB034E840A970A44EA2D
:10055000815447EA8357A4FB076802958D0A05FB7F
:1005600007854FEA932C04FB0C542705029D4FEAA4
:10057000065847EA1637B5EB08056EEB070C870EF1
:10058000920E47EA811742EA8312A7FB0201B6EBFB
:100590000B0164EB00042B0D43EA0C335E1844EBB3
:1005A0001C50DA465146E7FB0201C5F313044FEA3B
:1005B0000B3343EA14534FEA0432019C43EA060327
:1005C000A4F10C040294009CCDE900B400F0D7F92A
:1005D00003B0BDE8F08F00200146F9E72DE9F04DAA
:1005E00081EA030404F0004B21F0004514464FF06B
:1005F000000A23F0004150EA050220D054EA01022B
:100600001DD0C5F30A570246C5F31303C1F3130007
:10061000C1F30A5640F4801543F48013A7EB060893
:10062000101BD64608F2FD3873EB050002D308F123
:10063000010801E092185B41B8F1000F03DA0020D5
:100640000146BDE8F08D00204FF480110646844637
:100650000EE0171B73EB050705D3121B63EB0503B5
:1006600006434CEA010C49084FEA300092185B41FE
:1006700050EA0107EDD152EA030012D082EA0400E9
:1006800083EA0501084305D0101BAB4106D20122C5
:10069000002306E000224FF0004302E06FF0010269
:1006A00053101AEB06004CEB085110EB0A0041EB1B
:1006B0000B01BDE8F04D00F053B90EB5C10F80EA53
:1006C000E0700844CA07002140F233438DE80E0071
:1006D0000A460B4600F053F903B000BD0EB540F2D8
:1006E000334102910021CDE900110A460B4600F08A
:1006F00046F903B000BD70B5C1F30A5201F00045E0
:100700000024C1F3130140F2FF3341F480119A42F7
:1007100001DA002070BD40F233439A42A2F2334224
:1007200003DC524200F08BF800E090402C43F1D003
:10073000404270BDC1F30A5210B5C1F3130140F23B
:10074000FF3341F480119A4201DA002010BD40F2DB
:1007500033439A42A2F2334203DC524200F06FF874
:1007600010BD904010BD00F0004230F000400AD0B3
:10077000C10D01F56071C0F3160042EA0151C208D3
:1007800040071143704700200146704730B5041EF2
:1007900071F1000404DB4FF00044404264EB0101BE
:1007A000141E73F1000405DB1C464FF00043524257
:1007B00063EB0403994208BF904230BD01F000434F
:1007C00030B421F0004150EA010206D00A0DA2F532
:1007D0006072C1F31301002A02DC30BC00207047B4
:1007E000440F44EAC104C100E01830BC00EBC25021
:1007F00000F07FB830B50B460146002020220124CE
:1008000009E021FA02F59D4205D303FA02F5491BDE
:1008100004FA02F52844151EA2F10102F1DC30BDF4
:10082000202A04DB203A00FA02F1002070479140B0
:10083000C2F1200320FA03F3194390407047202AA5
:1008400004DB203A21FA02F00021704721FA02F37A
:10085000D040C2F120029140084319467047202A37
:1008600006DBCB17203A41FA02F043EAE07306E0D8
:1008700041FA02F3D040C2F12002914008431946E8
:1008800070472DE9F04791460F4680460446002602
:1008900014F8015B2DB100F0D3F80068405DC0078B
:1008A000F6D12B2D02D02D2D18D0641E4A46394684
:1008B000204600F0C9F827B13968A14201D1C7F834
:1008C000008071054FF002040BD54042002803DD83
:1008D00005F0D0F90460A007BDE8F08746F4806613
:1008E000E4E70028F8DA05F0C5F904606FF000408D
:1008F000F2E70029A8BF7047401C490008BF20F05C
:100900000100704710B4B0FA80FC00FA0CF050EA15
:10091000010404BF10BC704749B1CCF1200421FA96
:1009200004F411FA0CF118BF012121430843A3EB91
:100930000C01CB1D4FEA00614FEA102042BF00209E
:1009400010BC704700EBC35010440029A4BF10BC7A
:100950007047401C490008BF20F0010010BC7047E0
:1009600010B5141E73F1000408DA401C41F10001B7
:1009700092185B411A4301D120F0010010BD2DE90E
:10098000F04D92469B4611B1B1FA81F202E0B0FA05
:1009900080F220329046FFF743FF04460F4640EABC
:1009A0000A0041EA0B0153465A46084313D0114648
:1009B00053EA010019D0C8F140025046FFF73FFF4B
:1009C00005460E46504659464246FFF729FF084362
:1009D00005D0012004E020463946BDE8F08D002016
:1009E000054346EAE0762C4337430A986305E40A58
:1009F000A0EB08000022FD0A44EA47540A3002D561
:100A000000200146E9E7010510196941DDE90845C3
:100A100000196941BDE8F04DA2E70000064C074D02
:100A200006E0E06840F0010394E8070098471034BE
:100A3000AC42F6D3FFF7BEFBD0BE0008F0BE000804
:100A4000004870477CBE00082DE9F05F82460078C0
:100A5000002715468B460AF10104B946302801D01B
:100A60009DB113E014F8010B0127782803D0582812
:100A700001D045B10AE00DB1102D07D10027102596
:100A800014F8010B02E0082500E00A250026B04614
:100A90000EE005FB080005FB06F1012701EB1046FF
:100AA0001FFA80F8B6F5803F00D3B94614F8010B61
:100AB000294600F018F80028EBDABBF1000F05D04A
:100AC0000FB1641E00E05446CBF80040B9F1000FAE
:100AD00006D005F0CFF802210160C81EBDE8F09FE6
:100AE00048EA0640FAE73A2800D2303820F02002DF
:100AF000412A01D3A2F13700884201D34FF0FF30E1
:100B0000704770B58C1810F8015B15F0070301D120
:100B100010F8013B2A1106D110F8012B03E010F860
:100B2000016B01F8016B5B1EF9D12B0705D4002383
:100B3000521E0DD401F8013BFAE710F8013BCB1A25
:100B4000921C03E013F8015B01F8015B521EF9D51A
:100B5000A142D8D3002070BD10B5024800F0FCFBC4
:100B600010BD0000E001002055494A6822F44032DF
:100B70004A604A6843681A434A600268526822F42D
:100B8000807203685A6002685368026943EA02226D
:100B900003685A600268526822F0407203685A6023
:100BA0000268526883681A4303685A600268926850
:100BB00022F4006203689A6002689268C3681A436C
:100BC00003689A603F4B826A9A4218D00268926822
:100BD00022F0706203689A6002689268836A1A431E
:100BE00003689A600268926822F0405203689A6033
:100BF00002689268C36A1A4303689A600BE002684D
:100C0000926822F0706203689A600268926822F02B
:100C1000405203689A600268926822F002020368F8
:100C20009A6002689368027E43EA420203689A600F
:100C30002022125CA2B10268526842F4006203688A
:100C40005A600268526822F4604203685A6002687F
:100C50005368426A521E43EA423203685A6005E012
:100C60000268526822F4006203685A600268D26A1D
:100C700022F470020368DA620268D36A828B521E21
:100C800043EA02520368DA620268926822F4007250
:100C900003689A600268936890F8302043EA422221
:100CA00003689A600268926822F4806203689A601E
:100CB00002689368426943EA822203689A60704737
:100CC000002301400100000F70B505460C460026C8
:100CD0000DB1022C00D870BDA11E4FF6FF72284640
:100CE00000F034FA0646A01E2E54310A601E295424
:100CF00000BFF0E770B505460C4600260DB1022C8A
:100D000000D870BD601E81B2FF22284600F038FA7C
:100D10000646601E2E5400BFF3E700BFFEE700004A
:100D200010B5024800F060FF10BD000090020020E6
:100D300010B5024800F058FF10BD000090020020DE
:100D400010B5024800F050FF10BD000090020020D6
:100D500010B5024800F048FF10BD0000B8020020A6
:100D600010B5024800F040FF10BD0000B80200209E
:100D700010B5024800F038FF10BD0000B802002096
:100D800000B58BB0282101A8FFF7EBFA00200690F0
:100D90000190029007900120089000200390049099
:100DA000012009900E200A900020059001A90D480D
:100DB00000F0CAFD0B4801F0FCF90221094800F0DF
:100DC00003FD0E2006900020059001A9064800F0C2
:100DD000BBFD054801F0EDF90221034800F0F4FCE9
:100DE0000BB000BD90020020B802002010B50248F0
:100DF00001F07EFA10BD00002004002010B502486A
:100E000001F076FA10BD0000800400200146087849
:100E100010381823B0FBF3F20848805CC865032A39
:100E200005D908686FF30900001D886503E00868AC
:100E30006FF309008865886D7047000008B10008ED
:100E4000014600208A6A8B69CBB932B1012A0DD0E4
:100E5000022A03D0032A10D10EE000BFCB6A03F0B0
:100E60008073B3F1807F00D1012007E0CB6AB3F13A
:100E7000C07F00D1012001E000E000BF34E08B69B9
:100E8000B3F5005F1AD132B1012A07D0022A03D08C
:100E9000032A11D10AE000BF01200EE0CB6A03F063
:100EA0008073B3F1807F00D1012006E0CB6AB3F1FB
:100EB000C07F00D1012000E000BF15E032B1012A5F
:100EC00005D0022A04D0032A0CD103E000BF00BFE2
:100ED000012008E0CB6A03F08073B3F1807F00D17A
:100EE000012000E000BF00BF704730B504682468EF
:100EF00024F4802405682C60046863608468402CB6
:100F000004D10468A2600468E16003E00468A160A1
:100F10000468E26030BD704772B600BFFEE70000B3
:100F200001246FE0002002F099FF37A20021342055
:100F300003F028F836A201210A2003F023F838A292
:100F400002210A2003F01EF839A203210A2003F02F
:100F500019F83BA204210A2003F014F83CA2052151
:100F60000A2003F00FF83EA206210A2003F00AF837
:100F7000E1B22A22032002F0DDFF00BF06F04EFF9F
:100F80000028FBD0142006F089F806F047FF394905
:100F9000087000BF06F042FF0028FBD1142006F0C5
:100FA0007DF834480078012803D1641E3CBB062438
:100FB00025E030480078022804D1641C072C1ED19B
:100FC00001241CE02B480078052818D1072C14D2E6
:100FD000DFE804F01304070A0D13100003F052FEBB
:100FE0000CE003F00DFD09E008F0FAF906E007F067
:100FF000E7F803E000F04CF800E000BF00BF642019
:1010000008F00AFF8EE700004D454E550000000035
:10101000526F626F745F6D65737361676500000086
:101020004D6F746F725F6D6573736167650000006B
:1010300073686F6F745F6D6573736167650000003F
:10104000706F7765725F6D6573736167650000002F
:101050004D6F746F725F746573745F4E756C6C0066
:101060004759524F5F636832335F6D6573736167D1
:1010700065000000A00100200A2008F0CDFE02F06B
:101080000BFF07F087FF01E0FFF74AFFFCE70000D6
:1010900010B5002002F0E2FE42E023A201210A2066
:1010A00002F070FF2348D0ED060AB0EE600A02227B
:1010B0000121412002F0DEFF1FA202210A2002F0DE
:1010C00061FF1C48D0ED070AB0EE600A022211460B
:1010D000412002F0CFFF1BA203210A2002F052FFA1
:1010E0001448B0F912200321412003F09CF916A204
:1010F00004210A2002F046FF0E48B0F91420042112
:10110000412003F090F906F089FE032805D100BFC5
:1011100006F084FE0028FBD103E0642006F000FF07
:10112000BBE700BF10BD00004759524F5F736574A5
:101130003A000000785200204759524F5F666462BF
:1011400000000000636832006368330030B5034676
:1011500013B94FF6FF7030BD09E013F8014B82EA76
:101160000400C0B2054D35F8100080EA2222081EA6
:10117000A1F10101F1D11046EDE7000046BA0008E7
:1011800030B5034605E013F8010B80EA0204044879
:10119000025D081EA1F10105A9B2F4D1104630BDCF
:1011A00043B900087047000038B50246002000909F
:1011B00000BF92F83C00012801D1022038BD012077
:1011C00082F83C0000BF0868092816D91068C0687A
:1011D0000C780A3C04EB44050724AC40A043146897
:1011E000E0600C780A3C04EB44048868A040146872
:1011F000E46820431468E06013E0106800690C782C
:1012000004EB44050724AC40A043146820610C782B
:1012100004EB44048868A0401468246920431468DF
:1012200020614868072817D21068406B0C79641E4B
:1012300004EB84051F24AC40A04314686063088855
:1012400080B20C79641E04EB8404A0401468646BC3
:1012500020431468606331E048680D2817D2106895
:10126000006B0C79E41F04EB84051F24AC40A04301
:1012700014682063088880B20C79E41F04EB8404AE
:10128000A0401468246B20431468206316E01068A3
:10129000C06A0C790D3C04EB84051F24AC40A043CC
:1012A0001468E062088880B20C790D3C04EB840479
:1012B000A0401468E46A20431468E0621E4B1F4C8F
:1012C0001068A0420AD10868122807D1586820F493
:1012D00000005860586840F480005860174C10684F
:1012E000A04222D1164C0868A04202D008681128FA
:1012F0001BD1586820F480005860586840F4000002
:1013000058600F4C0868A0420FD10E4800680E4C80
:10131000B0FBF4F000EB80004000009002E0009889
:10132000401E009000980028F9D100BF002082F8EC
:101330003C0000BF00BF41E7002301400020014006
:10134000120000105400002040420F007047704708
:1013500001460868C06C704770B504460025002639
:1013600020680068C0F3400520684068C0F340165C
:1013700095B38EB3206C00F0100018B9206C40F4C7
:10138000007020642068806800F04050E8B9207E3A
:10139000D8B92068C06A00F4700020B12068806865
:1013A00000F4806088B92068406820F0200021683F
:1013B0004860206C20F480702064206C00F4805021
:1013C00018B9206C40F0010020642046FFF7BEFFF2
:1013D0006FF012002168086020680068C0F3800583
:1013E00020684068C0F3C016E5B3DEB3206C00F09F
:1013F000100018B9206C40F4005020642068806808
:1014000000F4401038BB2068806B00F4401020B11D
:101410002068806800F48060E8B92068406800F4C3
:101420008060C0B92068806800F0405098B9207E84
:1014300088B92068406820F0800021684860206CEE
:1014400020F480502064206C00F4807018B9206C67
:1014500040F0010020642046FFF7A4FE6FF00C006E
:10146000216808602068006800F001052068406875
:10147000C0F3801685B17EB12068006800F00100DD
:1014800050B1206C40F480302064204600F052F8C7
:101490006FF001002168086020680068C0F3401503
:1014A00020684068C0F380667DB176B1606C40F022
:1014B000020060646FF02000216808602046FFF79A
:1014C00046FF6FF020002168086070BD70B50446CB
:1014D00000250CB9012070BD1549A06A884200D0D2
:1014E00000BF206C30B9204600F026F80020606470
:1014F00084F83C00206C00F0100088B9206C20F4C7
:10150000885040F0020020642046FFF72DFB0020A9
:101510006064206C20F0020040F00100206400E0D4
:10152000012500BF002084F83C0000BF2846D2E718
:101530000100000F7047000010B586B0044614216A
:1015400001A8FEF70EFF1D492068884233D100BF75
:10155000002000901A48006840F480701849086024
:101560000846006800F48070009000BF00BF00BF14
:101570000020009012481438006840F00100104923
:10158000143908600846006800F00100009000BFB0
:1015900000BF40200190032002900020039001A989
:1015A000084801F085F800220521122001F044FAD4
:1015B000122001F031FA06B010BD000000200140F9
:1015C000443802400000024070B504460D46002633
:1015D0002068806800F48060B0F5806F11D12068C9
:1015E000806800F48070B0F5807F0AD1206C40F0F4
:1015F0002000206400BF002084F83C0000BF0120D0
:1016000070BD01F069F9064612E0681C80B125B191
:1016100001F062F9801BA8420AD9206C40F0040056
:10162000206400BF002084F83C0000BF0320E7E7EF
:101630002068006800F002000228E6D16FF0120076
:1016400021680860206C40F4007020642068806885
:1016500000F04050B8B9207EA8B92068C06A00F4F4
:10166000700020B12068806800F4806058B9206C58
:1016700020F480702064206C00F4805018B9206C35
:1016800040F0010020640020BAE7000008B50146E0
:101690000020009000BF91F83C00012801D10220F9
:1016A00008BD012081F83C0000BF0868806800F098
:1016B0000100A0B90868806840F001000B689860DC
:1016C0003B4800683B4BB0FBF3F000EB4000009060
:1016D00002E00098401E009000980028F9D10868A8
:1016E000806800F0010000285FD0086C40F20163C0
:1016F000984340F4807008640868406800F4806093
:1017000028B1086C20F4005040F480500864086C44
:1017100000F48050B0F5805F04D1486C20F00600E2
:10172000486401E00020486400BF002081F83C00CC
:1017300000BF214A6FF022000B681860506800F06B
:101740001F0018BB1D4B0868984213D01C4B08683B
:10175000984204D1101D006800F01F0050B1194BD1
:101760000868984221D11448001D006800F01F004D
:1017700010281AD20868806800F0405028B908681C
:10178000806840F080400B6898600EE00B4B086862
:1017900098420AD10868806800F0405028B908686B
:1017A000806840F080400B689860002078E7000077
:1017B0005400002040420F0000230140002001405F
:1017C000002101400022014010B5024692F820306D
:1017D000012B01D0022B06D1106840690843146820
:1017E0006061002010BD506A40F4802050620120EA
:1017F000F8E7F0B504460D461E4694F820702068C0
:101800008368A86800B900E000BF012F01D0022F53
:101810007CD103F0806030B903F0006018B903F0A8
:101820008050002873D0C3F30161022905D9606A92
:1018300040F4000060620120F0BD0120884030606B
:10184000A86860B9B5F800C0E86840EA4C5C206858
:1018500000F5C07000EB0110C0F800C00FE0D5E942
:1018600001C040EACC00D5F80CC040EA0C00D4F826
:1018700000C00CF5C07C0CEB011CCCF80000D5F8C6
:1018800010C0206800F5C07000EB0110C0F804C063
:10189000287D01280ED1206800F5C07000EB0110F2
:1018A000406840F4807C206800F5C07000EB0110B7
:1018B000C0F804C0D079000692F806C040EA0C4097
:1018C00092F805C040EA0C2C10794CEA000C206814
:1018D00000F5C07000EB0110C0F80CC0D078000615
:1018E00092F802C040EA0C4092F801C040EA0C2095
:1018F00092F800C040EA0C00D4F800C00CF5C07C9F
:101900000CEB011CCCF80800206801E016E00FE0A9
:1019100000F5C07000EB0110006840F0010C206879
:1019200000F5C07000EB0110C0F800C0002083E794
:10193000606A40F40010606201207DE7606A40F454
:1019400080206062012077E7F0B504460A462168EE
:1019500094F82050012D01D0022D7ED1424901F58D
:101960000071086840F001000860086820F47C50AD
:1019700008600868566A40EA06200860107D00F09A
:101980001F06012000FA06F3C8699843C861A1F553
:101990000071D069C8B9D1F80C029843C1F80C02A3
:1019A000908880B2968940EA064601F51070576922
:1019B00040F83760108880B2168940EA064601F583
:1019C0001070576900EBC7004660D069012819D133
:1019D000D1F80C021843C1F80C02908880B2168826
:1019E00040EA064601F51070576940F83760908963
:1019F00080B2168940EA064601F51070576900EB7F
:101A0000C7004660906928B9D1F804029843C1F82C
:101A1000040204E0D1F804021843C1F8040210697A
:101A200028B9D1F814029843C1F8140204E0D1F89F
:101A300014021843C1F81402106A012804D1D1F825
:101A40001C021843C1F81C02D1F8000220F001006A
:101A5000C1F800020020F0BDFFE7606A40F480207A
:101A600060620120F7E7000000640040704770B535
:101A7000044694F82050012D01D0022D7DD151B99A
:101A80002068C06800F0030080B9606A40F400106C
:101A90006062012070BD2068006900F0030028B971
:101AA000606A40F4001060620120F3E7206800F5EE
:101AB000D87000EB0110006800F00400906090689E
:101AC00040B9206800F5D87000EB01100068400DA7
:101AD000106007E0206800F5D87000EB0110006886
:101AE000C0085060206800F5D87000EB0110006855
:101AF00000F00200D060206800F5D87000EB011003
:101B0000406800F00F001061206800F5D87000EB0D
:101B10000110406800F47F40000A9061206800F5E1
:101B2000D87000EB01104068000C5061206800F58F
:101B3000D87000EB011080681870206800F5D8702C
:101B400000EB0110806800F47F40000A58702068A4
:101B500000F5D87000EB0110806800F47F00000CE5
:101B60009870206800F5D87000EB01108068000EB6
:101B7000D870206800F5D87000E02FE000EB01106D
:101B8000C0681871206800F5D87000EB0110C068BB
:101B900000F47F40000A5871206800F5D87000EB0F
:101BA0000110C06800F47F00000C9871206800F5F7
:101BB000D87000EB0110C068000ED87131B92068F0
:101BC000C06840F020002668F06005E020680069E9
:101BD00040F020002668306100205BE7606A40F436
:101BE00080206062012055E72DE9F05F0446002562
:101BF000206846692068D0F80490206887682068CB
:101C0000D0F80CA02068D0F810B02068D0F8188068
:101C100006F00100002855D007F00100C0B10120F6
:101C20002168886007F0020018B1204600F0F1FA40
:101C30000EE007F0040010B145F4006508E007F07D
:101C4000080010B145F4805502E0204600F0E0FAAB
:101C500007F48070C8B14FF480702168886007F481
:101C6000007018B1204600F0D6FA0EE007F480604C
:101C700010B145F4005508E007F4006010B145F4D8
:101C8000804502E0204600F0C5FA07F48030C8B174
:101C90004FF480302168886007F4003018B1204686
:101CA00000F0BBFA0EE007F4802010B145F40045C7
:101CB00008E007F4002010B145F4803502E020462A
:101CC00000F0AAFA06F0080038B10AF0100020B1BE
:101CD00045F4007510202168C86006F0040040B18A
:101CE0000AF0080028B108202168C860204600F0EA
:101CF0002FFA06F0020038B12068C06800F0030037
:101D000010B1204600F026FA06F0400038B10BF082
:101D1000100020B145F4806510202168086106F0AC
:101D2000200040B10BF0080028B1082021680861AC
:101D3000204600F03BFA06F0100038B12068006938
:101D400000F0030010B1204600F031FA06F4003034
:101D500040B109F0100028B11020216848602046E9
:101D600000F026FA06F4803040B109F0080028B1EE
:101D7000082021684860204600F050FA06F4004030
:101D800088B309F0040078B306F4807020B108F03D
:101D9000010008B145F0010506F4007020B108F01B
:101DA000020008B145F0020506F4806020B108F099
:101DB000040008B145F0040506F40060A0B108F085
:101DC000700088B108F07000402817D006DC102899
:101DD0000BD020280CD0302819D10CE0502810D07E
:101DE000602814D110E01DE019E045F008050FE06F
:101DF00045F010050CE045F0200509E045F04005F0
:101E000006E045F0800503E045F4807500E000BF82
:101E100000BF2068806920F070002168886104207C
:101E2000216848602DB1606A284360622046FFF750
:101E30001DFEBDE8F09F70B504460CB9012070BDD1
:101E400094F8200010B9204600F0B0F8206800682F
:101E500020F002002168086000F03EFD05460DE01C
:101E600000F03AFD401B0A2808D9606A40F40030AF
:101E70006062052084F820000120E0E720684068C7
:101E800000F002000028EBD12068006840F001005B
:101E90002168086000F020FD05460DE000F01CFD03
:101EA000401B0A2808D9606A40F4003060620520AF
:101EB00084F820000120C2E72068406800F001009B
:101EC0000028EBD0207E012806D12068006840F071
:101ED00080002168086005E02068006820F080002C
:101EE00021680860607E012806D12068006840F003
:101EF00040002168086005E02068006820F040008C
:101F000021680860A07E012806D12068006840F0A2
:101F100020002168086005E02068006820F02000AB
:101F200021680860E07E012806D12068006820F062
:101F300010002168086005E02068006840F010008B
:101F400021680860207F012806D12068006840F0E1
:101F500008002168086005E02068006820F008009B
:101F600021680860607F012806D12068006840F081
:101F700004002168086005E02068006820F0040083
:101F800021680860D4E902010843216908436169B6
:101F900008436168491E08432168C86100206062E7
:101FA000012084F82000002049E7000010B586B029
:101FB0000446142101A8FEF7D4F95F49206888423D
:101FC00051D15E480068401C5C49086008460068C2
:101FD00001280FD100BF002000905948006840F050
:101FE0000070574908600846006800F000700090D3
:101FF00000BF00BF00BF00200090514810380068AB
:1020000040F008004E49103908600846006800F0AA
:102010000800009000BF00BF032001900220029042
:1020200000200390032004900920059001A9454851
:1020300000F03EFB00220521132000F0FDFC1320E0
:1020400000F0EAFC00220521142000F0F5FC142029
:1020500000F0E2FC00220521152000F0EDFC152027
:1020600000F0DAFC65E038492068884261D100BFA1
:10207000002000903248006840F0806030490860DD
:102080000846006800F08060009000BF00BF2B4849
:102090000068401C294908600846006801280FD1E3
:1020A00000BF002000902648006840F000702449DE
:1020B00008600846006800F00070009000BF00BF94
:1020C00000BF002000901E481038006840F0020059
:1020D0001B49103908600846006800F002000090B3
:1020E00000BF00BF4FF4405001900220029000203A
:1020F0000390032004900920059001A9134800F0E3
:10210000D7FA002205213F2000F096FC3F2000F086
:1021100083FC00220521402000F08EFC402000F0CE
:102120007BFC00220521412000F086FC412000F0CC
:1021300073FC06B010BD00000064004038000020B1
:1021400040380240000C0240006800400004024099
:102150007047000010B504460E492068884209D136
:102160000D4B0E4A00212046FFF781FC0A490B481F
:1021700004F062FB0A492068884209D1094B0A4AE7
:1021800000212046FFF773FC0649074804F084FB52
:1021900010BD00000064004018000020280200204C
:1021A00000680040280000205C0200207047704753
:1021B000704770B5044694F82000012822D102200F
:1021C00084F820002068006820F001002168086081
:1021D00000F082FB05460DE000F07EFB401B0A2864
:1021E00008D9606A40F400306062052084F820005D
:1021F000012070BD2068406800F001000028EBD18C
:102200006062F6E7606A40F4002060620120F0E757
:10221000704770477047704770477047704770B598
:102220000446A56D00F058FB064694F835000228D8
:1022300008D08020606500BF002084F8340000BF13
:10224000012070BD2068006820F016002168086039
:102250002068406920F0800021684861206C08B93E
:10226000A06C28B12068006820F008002168086090
:102270002068006820F00100216808600FE000F08D
:102280002BFB801B05280AD92020606500BF002099
:1022900084F8340000BF032084F83500D1E72068BB
:1022A000006800F001000028E9D194F85C103F209C
:1022B0008840A86000BF002084F8340000BF0120DF
:1022C00084F835000020BCE7014691F8350002286B
:1022D00003D08020486501207047052081F8350033
:1022E0000868006820F001000A6810600020F3E729
:1022F000F8B50446002000908C4800684FF4165151
:10230000B0FBF1F7A56D2E6894F85C1008208840AA
:10231000304098B12068006800F0040070B1206877
:10232000006820F004002168086094F85C10082020
:102330008840A860606D40F00100606594F85C1012
:1023400001208840304068B12068406900F080007A
:1023500040B194F85C1001208840A860606D40F0A6
:102360000200606594F85C1004208840304068B139
:102370002068006800F0020040B194F85C1004206E
:102380008840A860606D40F00400606594F85C10BF
:1023900010208840304078B32068006800F00800C2
:1023A00050B394F85C1010208840A8602068006842
:1023B00000F4802080B12068006800F4002028B973
:1023C000206CC8B12046216C884715E0A06C98B1FC
:1023D0002046A16C88470FE02068006800F48070F8
:1023E00028B92068006820F0080021680860206C87
:1023F00010B12046216C884794F85C10202088405A
:102400003040002865D02068006800F010000028E7
:102410005FD094F85C1020208840A86094F83500C4
:10242000052828D12068006820F01600216808607F
:102430002068406920F0800021684861206C08B95C
:10244000A06C28B12068006820F0080021680860AE
:1024500094F85C103F208840A86000BF002084F8FA
:10246000340000BF012084F83500206D10B12046F3
:10247000216D8847F8BD2068006800F4802080B195
:102480002068006800F4002028B9606C10B1204674
:10249000616C88471DE0E06BD8B12046E16B88474E
:1024A00017E02068006800F4807068B92068006850
:1024B00020F010002168086000BF002084F834007C
:1024C00000BF012084F83500E06B10B12046E16BBD
:1024D0008847606D38B3606D00F00100F0B10520F1
:1024E00084F835002068006820F001002168086049
:1024F00000BF0098401C0090B84200D905E0206859
:10250000006800F001000028F3D100BF00BF0020E8
:1025100084F8340000BF012084F83500E06C10B16D
:102520002046E16C884700BFA4E70000540000206B
:102530002DE9F0410446002500F0CEF9074614B914
:102540000120BDE8F081606A00B100BF00BF00203B
:1025500084F8340000BF022084F835002068006849
:1025600020F00100216808600AE000F0B5F9C01B06
:10257000052805D920206065032084F83500E0E7B0
:102580002068006800F001000028EED1206805688E
:1025900021480540D4E901010843E1680843216965
:1025A000084361690843A1690843E1690843216A56
:1025B00008430543606A042803D1D4E90B010843AA
:1025C0000543206805602068456925F00705606AB5
:1025D0000543606A04280DD1A06A0543E06A48B14A
:1025E0002046FEF72DFC28B140206065012084F8CC
:1025F0003500A6E7206845612046FEF707FC064641
:1026000094F85C103F208840B06000206065012095
:1026100084F83500002094E73F8010F02DE9F04762
:1026200004460D4616461F464FF00008D4F8589051
:1026300000BF94F83400012802D10220BDE8F087E1
:10264000012084F8340000BF94F83500012825D11A
:10265000022084F83500002060653B46324629465A
:102660002046FEF742FC94F85C103F208840C9F8F1
:1026700008002068006840F0160021680860206C9F
:1026800028B12068006840F00800216808602068D0
:10269000006840F001002168086006E000BF0020EB
:1026A00084F8340000BF4FF002084046C6E700003F
:1026B000F8B502460B460025002400200021E6E084
:1026C000012606FA01F51E6806EA0504AC4273D13C
:1026D0005E68012E08D05E68022E05D05E68112E5D
:1026E00002D05E68122E13D190684F000326BE40C0
:1026F000B0434F00DE68BE40304390605068012612
:102700008E40B0431E79C6F300168E4030435060B1
:10271000D0684F000326BE40B0434F009E68BE40C5
:102720003043D0605E68022E02D05E68122E13D154
:10273000CF0802F1200656F827004E07F70E0F26A5
:10274000BE40B0434F07FF0E1E69BE403043CF0866
:1027500002F1200646F8270010684F000326BE400D
:10276000B0431E7906F003064F00BE4030431060B0
:102770005E6806F08056B6F1805FA8D100BF0026E3
:102780000096454E366846F48046434F3E603E46CE
:10279000366806F48046009600BF00BF3F4E8F08A3
:1027A00056F827008E07370F0F26BE40B0433C4E29
:1027B000B24202D100262EE068E03A4EB24201D188
:1027C000012628E0384EB24201D1022623E0374EDE
:1027D000B24201D103261EE0354EB24201D1042699
:1027E00019E0344EB24201D1052614E0324EB24215
:1027F00001D106260FE0314EB24201D107260AE090
:102800002F4EB24201D1082605E02E4EB24201D130
:10281000092600E00A268F073F0FBE4030431F4EB7
:102820008F0846F82700284E3068A0435E6806F4FB
:102830008036B6F5803F00D12043234E3060361DF0
:102840003068A0435E6806F40036B6F5003F00D15C
:1028500020431D4E361D3060361D3068A0435E6833
:1028600006F48016B6F5801F00D12043164E0836B8
:102870003060361D3068A0435E6806F40016B6F579
:10288000001F00D12043104E0C363060491C102927
:10289000FFF416AFF8BD000044380240083801408C
:1028A000000002400004024000080240000C024008
:1028B000001002400014024000180240001C0240B8
:1028C0000020024000240240003C01400AB1816126
:1028D00001E00B0483617047014800687047000005
:1028E000480000200348006803490978084401496A
:1028F00008607047480000205000002010B50D48C7
:10290000006840F400700B4908600846006840F415
:10291000806008600846006840F48070086003200A
:1029200000F0C8F8002000F007F800F04BF8002095
:1029300010BD0000003C024070B588B00446002580
:10294000002600222146192000F076F8192000F018
:1029500063F800BF002001901648006840F00100B5
:10296000144908600846006800F00100019000BFAB
:1029700000BF02A903A800F0B9F900F0EFF9450083
:102980000D48B5FBF0F0461E0C480D49086040F2BA
:10299000E7310B48C160466000210161816000F0B1
:1029A000F9FC20B9064800F051FD08B070BD0120C7
:1029B000FBE700004438024040420F0000000140A5
:1029C0006005002008B500BF002000901148006895
:1029D00040F480400F4908600846006800F48040D9
:1029E000009000BF00BF00BF00200090081F0068DB
:1029F00040F08050091F08600846006800F08050D1
:102A0000009000BF00BF00220F21901E00F014F8BC
:102A100008BD00004438024001460846002809DB92
:102A200000F01F0301229A4043099B0003F1E023B9
:102A3000C3F8002100BF70472DE9F05F80460D46C6
:102A40001646002703F0FAF8074639462A46334669
:102A500001F00700C0F1070ABAF1040F02D94FF0E4
:102A6000040A01E0C0F1070AD14600F1040ABAF1F4
:102A7000070F02D24FF0000A01E0A0F1030AD4468A
:102A80004FF0010A0AFA09FAAAF1010A0AEA020A4F
:102A90000AFA0CFA4FF0010B0BFA0CFBABF1010B2D
:102AA0000BEA030B4AEA0B042146404603F0CEF83A
:102AB000BDE8F09F00BF00F00702064B19684FF613
:102AC000FF031940044B0B4343EA0221014B1960F9
:102AD00000BF70470CED00E00000FA0538B5002497
:102AE00000BF002000901D48006840F080501B4946
:102AF00008600846006800F08050009000BF00BFEA
:102B0000012017490864FFF7E7FE044607E0FFF7D6
:102B1000E3FE001BB0F57A7F01D9032038BD1148D0
:102B2000406800F48030B0F5803FF0D101200C49BE
:102B30004864FFF7D1FE044607E0FFF7CDFE001B17
:102B4000B0F57A7F01D90320E8E70648406800F431
:102B50000030B0F5003FF0D10020DFE74038024000
:102B600000000E420070004070B504460D460CB9DE
:102B7000012070BD5848006800F00F00A84209D23B
:102B800055490D700846006800F00F00A84201D0BA
:102B90000120EEE7207800F0020002281DD1207805
:102BA00000F00400042805D14C48006840F4E050CF
:102BB0004A490860207800F00800082805D14748F5
:102BC000006840F46040454908604448006820F0CF
:102BD000F000A168084341490860207800F0010036
:102BE000A8B36068012807D13C4808380068C0F3E2
:102BF0004040B8B90120BCE76068022802D0606894
:102C0000032807D1354808380068C0F3406048B948
:102C10000120AEE7314808380068C0F3400008B929
:102C20000120A6E72D48006820F0030061680843F2
:102C30002A490860FFF750FE064609E0FFF74CFE00
:102C4000801B41F28831884202D9032091E707E0D6
:102C50002248006800F00C006168B0EB810FEDD1F4
:102C60001D48006800F00F00A84209D91A490D70EC
:102C70000846006800F00F00A84201D0012078E764
:102C8000207800F00400042807D11448006820F4DC
:102C9000E050E168084311490860207800F008001E
:102CA000082808D10D48006820F46040216940EAF6
:102CB000C1000A49086000F061F808490968C1F3D9
:102CC0000311074A515CC84006490860064800687D
:102CD000FFF732FE00204CE7003C0240083802407B
:102CE00010B10008540000204C0000200F220260A8
:102CF0000D4A126802F0030242600B4A126802F0A9
:102D0000F0028260084A126802F4E052C260064A89
:102D1000126802F46042D2080261044A126802F0AA
:102D20000F020A607047000008380240003C024071
:102D300001480068704700005400002000B5FFF70C
:102D4000F7FF04490968C1F38221034A515CC84076
:102D500000BD00000838024020B1000800B5FFF7B0
:102D6000E7FF04490968C1F34231034A515CC84096
:102D700000BD00000838024020B100082DE9F047EE
:102D8000002400250026A1462548006800F00C001C
:102D900020B1042805D008283AD105E0DFF8849056
:102DA00039E0DFF8849036E01D48001F006800F02D
:102DB0003F041B48001F006800F4800078B11A48E7
:102DC0001749091F0968C1F38811A0FB017001466A
:102DD000224600233846FDF767FA05460EE0114803
:102DE0000F49091F0968C1F38811A0FB0170014652
:102DF000224600233846FDF757FA05460848001FCB
:102E00000068C0F30140401C4600B5FBF6F902E043
:102E1000DFF8109000BF00BF4846BDE8F087000013
:102E2000083802400024F400001BB700F8B504463F
:102E30000CB90120F8BD207800F00100002874D002
:102E4000F948006800F00C0004280DD0F64800682E
:102E500000F00C00082813D1F348001F006800F4AC
:102E60008000B0F5800F0BD1EF4808380068C0F340
:102E70004040002859D06068002856D10120D9E789
:102E800000BF6068B0F5803F08D1E74808380068A7
:102E900040F48030E449083908601EE06068B0F50D
:102EA000A02F0DD1E0480838006840F48020DE49AA
:102EB000083908600846006840F4803008600CE07B
:102EC000D9480838006820F48030D74908390860AC
:102ED0000846006820F48020086000BF606890B158
:102EE000FFF7FAFC054606E0FFF7F6FC401B6428F6
:102EF00001D903209EE7CC4808380068C0F3404061
:102F00000028F1D011E0FFF7E7FC054606E0FFF7E7
:102F1000E3FC401B642801D903208BE7C248083832
:102F20000068C0F340400028F1D1207800F0020092
:102F300002285FD1BC48006800F00C0058B1BA48C4
:102F4000006800F00C0008281CD1B748001F00687A
:102F500000F48000B0B9B44808380068C0F34000FD
:102F600020B1E068012801D0012063E7AE480838AD
:102F7000006820F0F800216940EAC100AA49083938
:102F8000086037E0E06800B30120A8490860FFF757
:102F9000A3FC054606E0FFF79FFC401B022801D971
:102FA000032047E7A04808380068C0F34000002825
:102FB000F1D09D480838006820F0F800216940EA07
:102FC000C10099490839086014E000209749086059
:102FD000FFF782FC054606E0FFF77EFC401B022857
:102FE00001D9032026E7904808380068C0F3400064
:102FF0000028F1D1207800F0080008282CD1606961
:10300000A8B101208A490860FFF766FC054606E082
:10301000FFF762FC401B022801D903200AE782481F
:103020006C300068C0F340000028F1D014E00020AC
:103030007F490860FFF750FC054606E0FFF74CFCAF
:10304000401B022801D90320F4E677486C30006861
:10305000C0F340000028F1D1207800F004000428DB
:1030600070D1002770483830006800F0805090B967
:1030700000BF002000906C483830006840F080505D
:103080006949383108600846006800F080500090B7
:1030900000BF00BF01276748006800F48070B0B926
:1030A0006448006840F4807062490860FFF714FCCF
:1030B000054606E0FFF710FC401B022801D903205B
:1030C000B8E65C48006800F480700028F2D000BFC9
:1030D000A068012808D154486830006840F0010019
:1030E0005149683108601DE0A06805280DD14E489F
:1030F0006830006840F004004B49683108600846B9
:10310000006840F0010008600CE047486830006843
:1031100020F001004449683108600846006820F04A
:103120000400086000BFA068A8B1FFF7D5FB054602
:1031300009E0FFF7D1FB401B41F28831884202D9F8
:10314000032077E626E0384868300068C0F3400086
:103150000028EED013E0FFF7BFFB054608E0FFF7BD
:10316000BBFB401B41F28831884201D9032061E654
:103170002D4868300068C0F340000028EFD1012FCF
:1031800007D129483830006820F08050264938316E
:10319000086000BFA069002845D02348006800F0FF
:1031A0000C0008285DD0A069022845D100201F49E5
:1031B0000866FFF791FB054606E0FFF78DFB401B15
:1031C000022801D9032035E6174808380068C0F303
:1031D00040600028F1D1D4E907010843616A40EA60
:1031E00081110122A06AC2EB500041EA00412C206B
:1031F000005D41EA00600C49091F086001200B498D
:103200000866FFF769FB054606E0FFF765FB401B14
:10321000022801D903200DE6034808380068C0F3EE
:1032200040600028F1D03FE00838024000004742EB
:10323000800E47420070004000201C490866FFF7DE
:103240004BFB054606E0FFF747FB401B022801D970
:103250000320EFE516480068C0F340600028F2D173
:1032600022E0A069012800D1E4E51148001D0668AC
:1032700006F48001E069814214D106F03F01206A22
:1032800081420FD147F6C0703040616A884209D14F
:1032900006F44031A06A814204D106F07061E06A10
:1032A000814201D00120C5E50020C3E5000047426E
:1032B00000380240042808D14FF0E021096941F0AC
:1032C00004014FF0E022116107E04FF0E0210969AD
:1032D00021F004014FF0E022116170477047704700
:1032E00030B502460B4600BF92F83C00012801D1E0
:1032F000022030BD012082F83C0000BF022082F88D
:103300003D00106844681068816824F070041868F3
:10331000044310684460184D1068A8421BD0106820
:10332000B0F1804F17D0154D1068A84213D0144D3E
:103330001068A8420FD0134D1068A8420BD0124D50
:103340001068A84207D0114D1068A84203D0104D54
:103350001068A84205D121F0800158680143106827
:103360008160012082F83D0000BF002082F83C000F
:1033700000BF00BFBDE700000000014000040040A6
:1033800000080040000C00400004014000400140E3
:103390000018004010B504460CB9012010BD94F887
:1033A0003D0028B9002084F83C00204600F00CF8CD
:1033B000022084F83D00211D206801F009FE012053
:1033C00084F83D000020E9E738B504461C49206830
:1033D000884218D100BF002000901A48006840F0D1
:1033E0000200184908600846006800F002000090DA
:1033F00000BF00BF002205211D20FFF71DFB1D207F
:10340000FFF70AFB1BE010492068884217D100BF74
:10341000002000900B48006840F020000949086037
:103420000846006800F02000009000BF00BF0022A6
:1034300005213720FFF700FB3720FFF7EDFA38BDF5
:103440000004004040380240001400400146086873
:10345000C06840F001000B68D8600868806800F020
:103460000702062A05D00868006840F001000B68D2
:103470001860002070472DE9F04104460D4600BF5A
:1034800094F83C00012802D10220BDE8F08101201F
:1034900084F83C0000BF022084F83D002068866864
:1034A00026F0770626F47F46206886602868502834
:1034B00033D00CDC202850D004DC00284BD010285E
:1034C00051D149E0302849D040284CD139E060281A
:1034D0002DD0702807D0B0F5805F03D0B0F5005F25
:1034E00041D10DE040E0D5E902136A68206801F09F
:1034F000DBFD2068866846F077062068866033E04A
:10350000D5E902136A68206801F0CEFD2068806862
:1035100040F480402168886026E0EA686968206895
:1035200001F0D6FD5021206801F0C9FD1CE0EA68D9
:103530006968206801F0DFFD6021206801F0BFFDAF
:1035400012E0EA686968206801F0C2FD4021206845
:1035500001F0B5FD08E000BF00BF00BF296820688A
:1035600001F0ADFD00E000BF00BF012084F83D0088
:1035700000BF002084F83C0000BF00BF85E7704713
:1035800010B5044620680069C0F34000D8B1206837
:10359000C068C0F34000B0B16FF00200216808615C
:1035A000012020772068806900F0030018B12046D0
:1035B000FFF7E5FF05E0204600F0ADF8204600F0FB
:1035C000ABF80020207720680069C0F38000D8B1F4
:1035D0002068C068C0F38000B0B16FF004002168BB
:1035E0000861022020772068806900F4407018B1DB
:1035F0002046FFF7C4FF05E0204600F08CF8204687
:1036000000F08AF80020207720680069C0F3C0002D
:10361000D8B12068C068C0F3C000B0B16FF0080036
:1036200021680861042020772068C06900F0030049
:1036300018B12046FFF7A3FF05E0204600F06BF825
:10364000204600F069F80020207720680069C0F368
:103650000010D8B12068C068C0F30010B0B16FF09E
:10366000100021680861082020772068C06900F4F4
:10367000407018B12046FFF782FF05E0204600F0B9
:103680004AF8204600F048F80020207720680069BA
:1036900000F0010058B12068C06800F0010030B1AE
:1036A0006FF0010021680861204600F037F82068BB
:1036B0000069C0F3C01058B12068C068C0F3C010E2
:1036C00030B16FF08000216808612046FFF706FEE8
:1036D00020680069C0F3801058B12068C068C0F34A
:1036E000801030B16FF0400021680861204600F082
:1036F00043F820680069C0F3401058B12068C068E2
:10370000C0F3401030B16FF02000216808612046FE
:10371000FFF7E5FD10BD70477047000010B5044687
:103720000F492068884202D1FFF7DCF816E00D4906
:103730002068884209D10C48036840685A1C40F14F
:10374000000009490A60486008E0084920680968E3
:10375000884203D10649074803F078FA10BD0000FB
:103760000000014000040040400000202003002031
:1037700010510020A4500020704770B50446002569
:1037800020684069C0F3C01594F8390021280ED193
:103790006DB12068406920F0800021684861206B8D
:1037A00010B1206BFEF73BFD204601F034FD206890
:1037B0004069C0F3801594F83A0022280ED16DB10B
:1037C0002068406920F0400021684861606B10B1BA
:1037D000606BFEF724FD204601F0FDFC002070BD6B
:1037E000704700002DE9F04704462068056820680E
:1037F000C668206847694FF00008C14605F00F0809
:10380000B8F1000F0AD105F0200038B106F0200011
:1038100020B1204601F009FDBDE8F087B8F1000FA6
:1038200072D007F0010018B906F4907000286BD030
:1038300005F0010030B106F4807018B1E06B40F083
:103840000100E06305F0040030B107F0010018B199
:10385000E06B40F00200E06305F0020030B107F0D9
:10386000010018B1E06B40F00400E06305F00800CF
:1038700048B106F0200010B907F0010018B1E06B64
:1038800040F00800E063E06B70B305F0200028B161
:1038900006F0200010B1204601F0C7FC2068406906
:1038A000C0F38019E06B00F0080010B9B9F1000F07
:1038B00023D0204601F08FFC2068406900F04000D2
:1038C000402816D12068406920F0400021684861F6
:1038D000606B50B11748616B0865606BFEF7F4FCD4
:1038E00010B1606B016D88470CE02046FFF778FF50
:1038F00008E02046FFF774FF04E02046FFF770FF62
:103900000020E06388E7FFE705F0800030B106F0B3
:10391000800018B1204601F0CFFE7DE705F04000A1
:1039200030B106F0400018B1204601F064FC73E7A6
:1039300000BF71E71F51000810B504460CB9012003
:1039400010BDA06900B100E000BF94F8390028B9AB
:10395000002084F83800204600F028F8242084F85D
:1039600039002068C06820F400502168C8602046F3
:1039700001F0AEFC2068006920F4904021680861E5
:103980002068406920F02A00216848612068C068EA
:1039900040F400502168C8600020E063202084F8D3
:1039A000390084F83A000020CAE7000010B586B05C
:1039B0000446142101A8FCF7D4FC864920688842FB
:1039C00038D100BF002000908348006840F010000C
:1039D000814908600846006800F01000009000BFB0
:1039E00000BF00BF002000907B481438006840F002
:1039F00002007949143908600846006800F00200A6
:103A0000009000BF00BFC020019002200290002063
:103A10000390032004900720059001A96F48FEF74A
:103A200047FE002205212520FFF706F82520FEF796
:103A3000F3FFCCE06A49206888427CD100BF0020B7
:103A400000906548001F006840F480206249091F0B
:103A500008600846006800F48020009000BF00BFA6
:103A600000BF002000905C481438006840F0080057
:103A70005949143908600846006800F008000090B1
:103A800000BF00BF4FF44070019002200290002060
:103A90000390032004900720059001A95148FEF7E8
:103AA00007FE5148514908604FF00060486000210E
:103AB0004E488160C1604FF4806101610021416125
:103AC00081614FF48071C1614FF440310162002186
:103AD0004162FEF72DFD08B1FDF71EFA00BF434815
:103AE0006063846300BF40483030414908604FF054
:103AF0000060486040213E4881600021C1604FF471
:103B0000806101610021416181614FF48071C16177
:103B10004FF44031016200214162FEF709FD08B116
:103B2000FDF7FAF900BF32482063846300BF00222A
:103B30000521272000E00DE0FEF77EFF2720FEF79D
:103B40006BFF2C480068C06840F0100029490968E4
:103B5000C8603CE028492068884238D100BF002076
:103B600000901D48006840F020001B49086008468E
:103B7000006800F02000009000BF00BF00BF0020E0
:103B8000009015481438006840F04000124914397C
:103B900008600846006800F04000009000BF00BFC9
:103BA0004FF48440019002200290002003900320F3
:103BB00004900820059001A91048FEF779FD002225
:103BC00005214720FEF738FF4720FEF725FF06B006
:103BD00010BD0000001001404438024000040240C3
:103BE00000480040000C02402860024020040020F1
:103BF00080040020A00300200014014000180240AF
:103C000077B581B00446154694F83A00202850D183
:103C1000029800B115B9012004B070BD00BF94F83E
:103C20003800012801D10220F6E7012084F838008D
:103C300000BF0298A062A5850020E063222084F8DE
:103C40003A001D48616BC8631C48616B08641C48DE
:103C5000616BC8640020616B086502AE326823683E
:103C6000191D2B46606BFEF7D9FC00BF00200090A9
:103C700020680068009020684068009000BF00BF86
:103C800000BF002084F8380000BF2068C06840F4FE
:103C900080702168C8602068406940F00100216898
:103CA00048612068406940F0400021684861002078
:103CB000B2E70220B0E7000083510008C9510008B4
:103CC00033510008704770472DE9F84304460D460C
:103CD00016461F464FF0000994F8390020285DD1A0
:103CE00005B116B90120BDE8F88300BF94F838008B
:103CF000012801D10220F6E7012084F8380000BF36
:103D00000020E063212084F83900FEF7E5FD8146BC
:103D1000A684E68400BF002084F8380000BF2BE0B2
:103D2000E08C401EE084A068B0F5805F16D14B4661
:103D3000002280212046009701F0F2FC08B1032008
:103D4000D1E7A846B8F80000C0F308002168486031
:103D5000206908B9AD1C0FE06D1C0DE04B46002238
:103D600080212046009701F0DBFC08B10320BAE770
:103D700015F8010B21684860E08C0028D0D14B4633
:103D8000002240212046009701F0CAFC08B1032020
:103D9000A9E7202084F839000020A4E70220A2E748
:103DA000704700BFFEE7000000B587B000BF0020ED
:103DB00001901E48006840F001001C490860084658
:103DC000006800F00100019000BF00BF00BF0020AC
:103DD00001900846006840F002000860084600684C
:103DE00000F00200019000BF00BF4FF4C1600290DC
:103DF0000120039004900220059002A90C48FEF7D0
:103E000057FC8020029002A90A48FEF751FC0020CE
:103E1000094908600949C1F89C0207491C3108603A
:103E20000749C1F8A40207B000BD000030380240C5
:103E300000040240000002408C82404200004042E8
:103E40000080404207E041F6132100BF0A1EA1F1A5
:103E50000101FBD1401E0028F5D1704770B5064620
:103E6000002415E004F1B001C8B200F05BFB0020B3
:103E700000F058FB102000F055FB002504E0304610
:103E800000F07AFB681CC5B2822DF8DB601CC4B25E
:103E9000082CE7DB70BD000010B5FFF785FF01209F
:103EA0002249086000202249C1F8A8023220FFF709
:103EB000C9FF01201D491C310860002000F0AEFF41
:103EC000802000F099FF3F2000F0BDFF002000F0AF
:103ED0009CFF002000F06EFF042000F072FF022023
:103EE00000F056FF012000F0C0FF082000F07DFF29
:103EF000102000F070FFCF2000F053FFF12000F001
:103F0000ABFF402000F0B8FF002000F08EFF002043
:103F100000F092FF012000F081FF0020FFF79EFFDC
:103F20000021084600F0EBFA10BD00008C824042F0
:103F3000008040422DE9F04105460E4617464FF0FD
:103F400000080024A7F1200000F0FF087A2D02DD10
:103F50000025701CC6B23146284600F0D0FA002475
:103F600009E008EB4801064A02EB4101085D00F058
:103F700003FB601CC4B2062CF3DBBDE8F08100003B
:103F800028B100082DE9F0430446884615464FF055
:103F900000090026002720E0E85D203800F0FF0936
:103FA0007E2C04DD002408F1010000F0FF084146EA
:103FB000204600F0A4FA002609E009EB4901094A6D
:103FC00002EB4101885D00F0D7FA701CC6B2062EE4
:103FD000F3DBA01DC4B2781CC7B2E85D0028DBD1BA
:103FE000BDE8F08328B100082DE9F04705468A4670
:103FF00016463446002C06DA2D2251462846FFF795
:1040000099FF644204E02B2251462846FFF792FFB5
:10401000642094FBF0F0C7B2642094FBF0F100FB45
:1040200011400A2190FBF1F000F0FF080A2094FBF8
:10403000F0F100FB114000F0FF0907F13001CAB2B6
:10404000A91DC8B25146FFF775FF08F13001CAB289
:1040500005F10C01C8B25146FFF76CFF09F13001C0
:10406000CAB205F11201C8B25146FFF763FFBDE8BD
:10407000F08700002DE9F74F2DED020B84B00446C8
:104080009346062001904FF0000AFDEEC00A10EEA4
:10409000905AFDEEC00AF8EEE00A70EE600A9FED5D
:1040A000961A60EE810AFDEEE00A10EE908ADFEDCE
:1040B000930AB4EEE00AF1EE10FA05D22D22204662
:1040C0000799FFF737FF04E02B2220460799FFF7F7
:1040D00031FF002D00DA6D42AA4642F21070BAFBA1
:1040E000F0F0C0B2039042F21070BAFBF0F100FBA6
:1040F00011A04FF47A71B0FBF1F0C0B20290084603
:10410000BAFBF0F100FB11A06421B0FBF1F000F06C
:10411000FF096420BAFBF0F100FB11A00A21B0FBFB
:10412000F1F60A20BAFBF0F100FB11A7039860B387
:1041300003993031CAB2A11DC8B20799FFF7FAFE40
:1041400002993031CAB204F10C01C8B20799FFF7E5
:10415000F1FE09F13001CAB204F11201C8B20799A7
:10416000FFF7E8FE06F13001CAB204F11801C8B247
:104170000799FFF7DFFE07F13001CAB204F11E0113
:10418000C8B20799FFF7D6FE66E0029828B305206B
:10419000019002993031CAB2A11DC8B20799FFF748
:1041A000C9FE09F13001CAB204F10C01C8B2079985
:1041B000FFF7C0FE06F13001CAB204F11201C8B225
:1041C0000799FFF7B7FE07F13001CAB204F11801F1
:1041D000C8B20799FFF7AEFE3EE0B9F1000F1CD060
:1041E0000420019009F13001CAB2A11DC8B207999B
:1041F000FFF7A0FE06F13001CAB204F10C01C8B20B
:104200000799FFF797FE07F13001CAB204F11201D6
:10421000C8B20799FFF78EFE1EE09EB10320019001
:1042200006F13001CAB2A11DC8B20799FFF782FE9C
:1042300007F13001CAB204F10C01C8B20799FFF7C7
:1042400079FE09E00220019007F13001CAB2A11DF8
:10425000C8B20799FFF76EFEB8F1000F01DAC8F196
:104260000008BBF1050F42D2DFE80BF0030415256F
:1042700035003CE04FF47A7098FBF0F00090019923
:1042800001EB410104EB4101C8B25B46009A07997A
:1042900000F036F82BE0642098FBF0F000900199D4
:1042A00001EB410104EB4101C8B25B46009A07995A
:1042B00000F026F81BE00A2098FBF0F0009001992E
:1042C00001EB410104EB4101C8B25B46009A07993A
:1042D00000F016F80BE0019901EB410104EB4101FC
:1042E000C8B25B464246079900F00AF800BF00BF1B
:1042F00009B0BDE8F08F000000401C4695BFD633E2
:104300002DE9F04F04468A46154698462E2251461E
:104310002046FFF70FFE4FF47A70B5FBF0F000F087
:10432000FF0B4FF47A70B5FBF0F100FB11506421E4
:10433000B0FBF1F000F0FF096420B5FBF0F100FBE9
:1043400011500A21B0FBF1F70A20B5FBF0F100FB98
:104350001156B8F1010F09D0B8F1020F0FD0B8F122
:10436000030F1ED0B8F1040F5AD135E006F1300129
:10437000CAB2A11DC8B25146FFF7DCFD50E007F1FB
:104380003001CAB2A11DC8B25146FFF7D3FD06F1F4
:104390003001CAB204F10C01C8B25146FFF7CAFDA0
:1043A0003EE009F13001CAB2A11DC8B25146FFF783
:1043B000C1FD07F13001CAB204F10C01C8B2514687
:1043C000FFF7B8FD06F13001CAB204F11201C8B21C
:1043D0005146FFF7AFFD23E00BF13001CAB2A11D3A
:1043E000C8B25146FFF7A6FD09F13001CAB204F187
:1043F0000C01C8B25146FFF79DFD07F13001CAB26A
:1044000004F11201C8B25146FFF794FD06F13001E4
:10441000CAB204F11801C8B25146FFF78BFD00BFC4
:1044200000BFBDE8F08F2DE9F04F05468B461446DE
:10443000002C06DA2D2259462846FFF77BFD644200
:1044400004E02B2259462846FFF774FD42F2107013
:1044500094FBF0F000F0FF0942F2107094FBF0F1D1
:1044600000FB11404FF47A7190FBF1F000F0FF0A6D
:10447000084694FBF0F100FB1140642190FBF1F041
:10448000C6B2642094FBF0F100FB11400A2190FBBE
:10449000F1F0C7B20A2094FBF0F100FB114000F0EC
:1044A000FF0809F13001CAB2A91DC8B25946FFF789
:1044B00041FD0AF13001CAB205F10C01C8B25946FA
:1044C000FFF738FD06F13001CAB205F11201C8B29A
:1044D0005946FFF72FFD07F13001CAB205F1180167
:1044E000C8B25946FFF726FD08F13001CAB205F1FE
:1044F0001E01C8B25946FFF71DFDBDE8F08F30B56B
:1045000004460D4605F1B001C8B200F00BF81021C9
:1045100041EA141000F006F804F00F0000F002F871
:1045200030BD000008210022104B1A60104BC3F868
:104530008C2214E000F080021AB101220D4B1A60A7
:1045400002E000220B4B1A600122084B183B1A6054
:1045500000BF0022064BC3F88C224206100E0A1E32
:10456000A1F10103D9B2E5D170470000A482404215
:10457000008040429C02404208210122104B1A60F8
:104580000022104BC3F88C2214E000F080021AB114
:1045900001220D4B1A6002E000220B4B1A6001222F
:1045A000074B183B1A6000BF0022064BC3F88C2251
:1045B0004206100E0A1EA1F10103D9B2E5D17047DF
:1045C000A4824042008040429C0240421FB500202D
:1045D00000900190029003901548164908604FF42E
:1045E000803048600021134881600161017680F8C5
:1045F0002010C162104981620021C1600121C161A6
:10460000002180F8301001214161FCF75FFF08B103
:10461000FCF782FC0620009001200190002002900F
:1046200069460448FCF7C0FD08B1FCF775FC1FBDE6
:1046300000200140E00100200100000F10B50E48ED
:104640000E4908600920486000210C488160C16063
:104650004FF400310161002141610176417681769C
:10466000C1760121017700214177FDF7E4FB08B114
:10467000FCF752FC10BD00000064004090020020D6
:1046800010B50D480D4908600920486000210B480D
:104690008160C1604FF40031016100214161017608
:1046A00041768176C17601774177FDF7C4FB08B189
:1046B000FCF732FC10BD000000680040B80200208A
:1046C00008B500BF002000900E48006840F40010BC
:1046D0000C4908600846006800F40010009000BF14
:1046E00000BF002205210C20FEF7A6F90C20FEF7E2
:1046F00093F9002205210E20FEF79EF90E20FEF709
:104700008BF908BD3038024010B5074A0021074830
:1047100003F0C2FC06490860064A0021064803F07F
:10472000BBFC0649086010BDC0B000088B4E0008F5
:1047300000000020E4B000089D9400080400002060
:1047400000B587B0142102A8FBF70BFE00BF0020C4
:1047500001904E48006840F040004C49086008460F
:10476000006800F04000019000BF00BF00BF0020C3
:1047700001900846006840F00100086008460068A3
:1047800000F00100019000BF00BF00BF00200190B9
:104790000846006840F0020008600846006800F023
:1047A0000200019000BF00BF00BF0020019008463A
:1047B000006840F0080008600846006800F0080043
:1047C000019000BF00BF00BF0020019008460068B4
:1047D00040F0800008600846006800F0800001900A
:1047E00000BF00BF00BF002001900846006840F0F5
:1047F000100008600846006800F01000019000BF3B
:1048000000BF00BF002001900846006840F0200073
:1048100008600846006800F02000019000BF00BF5B
:10482000002204211A48FEF751F800224FF40061DB
:104830001848FEF74BF800224FF480411648FEF767
:1048400045F8042002900120039004900320059075
:1048500002A90F48FDF72CFF4FF4006002900120E1
:10486000039004900320059002A90A48FDF720FF59
:104870004FF48040029001200390049003200590A3
:1048800002A90548FDF714FF07B000BD303802400B
:1048900000040240001002400014024000B587B03E
:1048A0000020039004900590069001900290144817
:1048B0001449086054204860002112488160362164
:1048C000C160002101618161FEF764FD08B1FCF760
:1048D00023FB4FF48050039003A90A48FEF7CBFD59
:1048E00008B1FCF719FB00200190029001A90548CE
:1048F000FEF7F6FC08B1FCF70FFB07B000BD0000A7
:1049000000040040E00200201CB50020009001904F
:104910000E480F4908605920486000210C4881600A
:1049200040F2E731C16080218161FEF733FD08B1BB
:10493000FCF7F2FA00200090019069460448FEF767
:10494000CFFC08B1FCF7E8FA1CBD000000140040E1
:104950002003002010B50B480B4908604FF4E130EC
:104960004860002108488160C16001610C214161FB
:1049700000218161C161FEF7DFFF08B1FCF7CCFACD
:1049800010BD0000001001406003002010B50B486E
:104990000B4908604FF4E13048600021084881600D
:1049A000C16001610C21416100218161C161FEF79B
:1049B000C3FF08B1FCF7B0FA10BD0000004800408A
:1049C000A003002010B50B480B4908604FF4E130FC
:1049D0004860002108488160C16001610C2141618B
:1049E00000218161C161FEF7A7FF08B1FCF794FACD
:1049F00010BD000000140140E003002000BFFEE7EE
:104A000010B50020FFF72AFA48E026A200211C205A
:104A1000FFF7B8FA27A201210320FFF7B3FA2748CE
:104A20000121C2692820FFF7FEFC25A202210320F4
:104A3000FFF7A8FA24480221C2692820FFF7F3FCF7
:104A400022A203210846FFF79DFA22480321C269EA
:104A50002820FFF7E8FC20A204210320FFF792FAA8
:104A60001F480421C2692820FFF7DDFC1DA2052193
:104A70000320FFF787FA1D48052102682820FFF769
:104A8000D2FC03F0CBF9032805D100BF03F0C6F92F
:104A90000028FBD103E0642003F042FAB5E700BF31
:104AA00010BD00004D6F746F725F6D657373616749
:104AB00065000000434D5F313A000000844E002045
:104AC000434D5F323A000000D84E0020434D5F3323
:104AD0003A0000002C4F0020434D5F343A000000A4
:104AE000804F00205961773A00000000D44F002029
:104AF00000BFFEE790ED030A80ED040A90ED020A84
:104B000080ED030A90ED000AD0ED010A30EE600A54
:104B100080ED020A90F83C1001292AD190ED060A96
:104B2000D0ED020A20EE200A80ED080A90ED020A7C
:104B3000D0ED030A70EE600A90ED080A90ED051AB8
:104B400001EE200AD0ED020A90ED031AF0EE001AF1
:104B500041EEC10A90ED041A70EE810A90ED071A39
:104B600001EE200AD0ED0A0A30EE200A80ED0A0A92
:104B70003FE090F83C10E1BB90ED080AD0ED060A4A
:104B800090ED021A00EE810A80ED080A90ED080A05
:104B9000D0ED090AB4EEE00AF1EE10FA04DD90ED72
:104BA000090A80ED080A10E090ED080AD0ED090A24
:104BB000F1EE600AB4EEE00AF1EE10FA05D290EDE3
:104BC000090AB1EE400A80ED080A90ED080AD0ED1E
:104BD000050A90ED021A00EE810AD0ED020A90ED6E
:104BE000031A70EEC10A90ED071A01EE200A80ED5B
:104BF0000A0A90ED0A0AD0ED0B0AB4EEE00AF1EED3
:104C000010FA04DD90ED0B0A80ED0A0A10E090ED39
:104C10000A0AD0ED0B0AF1EE600AB4EEE00AF1EEFA
:104C200010FA05D290ED0B0AB1EE400A80ED0A0AA7
:104C3000704700009FED0E0A80ED000A9FED0C0A00
:104C400080ED010A9FED0A0A80ED020A9FED080A35
:104C500080ED030A9FED060A80ED040A9FED040A29
:104C600080ED080A9FED020A80ED0A0A70470000F5
:104C7000000000000146002901DD08467047484257
:104C800000B2FBE710B50020FFF7E8F856E02DA2D0
:104C900000211C20FFF776F92EA201210320FFF747
:104CA00071F92D48027801213620FFF79DF92BA2DA
:104CB00002210320FFF766F92748428802213620A7
:104CC000FFF7B1FB26A203210846FFF75BF9224854
:104CD000427803213620FFF787F923A2042103201D
:104CE000FFF750F92248028804213620FFF79BFB8A
:104CF00020A205210320FFF745F921480078020989
:104D000005213620FFF770F91EA206210320FFF7C8
:104D100039F91B48007800F00F0206213620FFF712
:104D200063F903F07BF8032805D100BF03F076F8A0
:104D30000028FBD103E0642003F0F2F8A7E700BFEE
:104D400010BD0000526F626F745F6D6573736167B1
:104D50006500000049443A005A50002048503A008B
:104D60004C6576656C3A00005072655F48503A00B9
:104D700090500020487572745F74703A0000000013
:104D800015010020487572745F61723A00000000DE
:104D900010B504462020FFF7C5FB2046FFF7C2FBF5
:104DA00010BD10B504468120FFF7BCFB2046FFF77D
:104DB000B9FB10BD10B5044644F04000FFF7B2FB4C
:104DC00010BD10B504468D20FFF7ACFB44F0100079
:104DD000FFF7A8FB10BD10B50446DA20FFF7A2FBD1
:104DE00044F00200FFF79EFB10BD10B5044644F0EE
:104DF000C000FFF797FB10BD10B50446D520FFF7A4
:104E000091FB2046FFF78EFB10BD10B50446D32062
:104E1000FFF788FB2046FFF785FB10BD10B5044661
:104E200044F0AE00FFF77EFB10BD10B5044644F021
:104E3000A400FFF777FB10BD10B5044644F0A600B0
:104E4000FFF770FB10BD10B50446A820FFF76AFB02
:104E50002046FFF767FB10BD10B50446D920FFF7C9
:104E600061FB2046FFF75EFB10BD10B5044644F021
:104E7000A000FFF757FB10BD10B50446DB20FFF77D
:104E800051FB2046FFF74EFB10BD00BF642003F02E
:104E900047F8FBE710B500BF502080F31188BFF33F
:104EA0004F8FBFF36F8F00BF05F040FE18B14FF07A
:104EB00080500449086000BF002080F3118800BFC3
:104EC00010BD000004ED00E000B593B0302107A84C
:104ED000FBF747FA142102A8FBF743FA00BF0020B2
:104EE00001902648006840F0805024490860084638
:104EF000006800F08050019000BF00BF00BF00209C
:104F000001901F48006840F440401D490860084671
:104F1000006800F44040019000BF00BF01200790EE
:104F20000004089002200D9041050E9106210F917A
:104F3000B4211091022111910421129107A8FDF7CB
:104F400075FF08B1FBF7E8FFFDF7C8FD08B1FBF7F7
:104F5000E3FF0F20029002200390002004904FF402
:104F6000A05005904FF480500690052102A8FDF74F
:104F7000FBFD08B1FBF7D0FF13B000BD4038024085
:104F8000007000400548006840F470000349086064
:104F90004FF00060014980390860704788ED00E0FB
:104FA00010B50248FEF7ECFA10BD000060050020C5
:104FB00010B50248FEF7E4FA10BD0000E002002040
:104FC00010B50248FEF7DCFA10BD000020030020F7
:104FD00010B50268294B98420ED0B0F1804F0BD02B
:104FE000274B984208D0274B984205D0264B984231
:104FF00002D0264B984203D122F070024B681A432C
:105000001E4B984220D0B0F1804F1DD01C4B9842CF
:105010001AD01C4B984217D01B4B984214D01B4BF4
:10502000984211D01A4B98420ED01A4B98420BD08E
:10503000194B984208D0194B984205D0184B98420A
:1050400002D0184B984203D122F44072CB681A4325
:1050500022F080034C6943EA040202608B68C36259
:105060000B688362054B984202D0084B984201D1ED
:105070000B6903630123436110BD00000000014080
:105080000004004000080040000C00400004014003
:105090000040014000440140004801400018004029
:1050A000001C00400020004030B50C46816821F40F
:1050B0007F4142EA032525432943816030BD0A46EA
:1050C000816821F0700142F0070319438160704745
:1050D00030B50B461446026A056A25F001050562E3
:1050E000816921F0F00141EA041122F00A021A4319
:1050F0008161026230BD30B50B461446056A25F069
:10510000100505628169026A21F4704141EA0431A7
:1051100022F0A00242EA03128161026230BD70B542
:105120000546AC6B0020E085E0842046FEF758FB86
:1051300070BD70B506460025B46B20684069C0F3A9
:10514000C01594F83900212805D125B10020E0844C
:10515000204600F060F820684069C0F3801594F89C
:105160003A00222805D125B10020E085204600F034
:1051700032F8E06B40F01000E0632046FEF730FBB1
:1051800070BD70B50546AC6B2868006800F480708F
:10519000B0B90020E0852068C06820F480702168E4
:1051A000C8602068406920F00100216848612068DB
:1051B000406920F0400021684861202084F83A00CE
:1051C0002046FEF77FFD70BD70B50446A56B2846EE
:1051D000FEF779FD70BD0168C96821F4907102681D
:1051E000D1600168496921F0010102685161202103
:1051F00080F83A10704710B504462068C06820F067
:1052000040002168C860202084F839002046FEF75D
:10521000C7FD002010BD0168C96821F0C001026807
:10522000D160202180F83910704770B5044694F899
:105230003A0022284AD1A068B0F5805F13D1A56A50
:10524000206940B920684068C0F308002880A06A3F
:10525000801CA06219E020684068C0B22880A06A63
:10526000401CA06211E0206938B920684068C1B2D2
:10527000A26A501CA062117007E02068406800F02C
:105280007F01A26A501CA0621170E08D401E80B2A6
:10529000E085C8B92068C06820F020002168C86097
:1052A0002068C06820F480702168C8602068406968
:1052B00020F0010021684861202084F83A0020464F
:1052C000FEF700FD002070BD0020FCE70220FAE799
:1052D0002DE9F84F04462068006920F44050E16849
:1052E0000843216808612169A0680843616908438F
:1052F000E169084300902068C06849F20C61884366
:10530000009908432168C8602068406920F4407013
:10531000A169084321684861E069B0F5004F75D183
:10532000E3492068884203D0E249206888426FD16F
:10533000FDF714FD814602206168A0FB01510B4678
:105340001920A9FB00712A463846FAF7ADFF6421FF
:10535000B0FBF1F04FEA001A02206168A0FB015196
:105360000B461920A9FB00712A463846FAF79CFF24
:10537000074602206168A0FB01510B461920A9FBDA
:1053800000B12A465846FAF78FFF6421B0FBF1F0CE
:1053900000EBC00101EB0010A7EB8000322101EB14
:1053A000C0006421B0FBF1F000F0F8000AEB400A05
:1053B00002206168A0FB01510B461920A9FB007176
:1053C0002A463846FAF770FF074602206168A0FBBC
:1053D00001510B461920A9FB00B12A465846FAF79D
:1053E00063FF6421B0FBF1F000EBC00101EB0010A2
:1053F000A7EB8000322101EBC0006421B0FBF1F08B
:1054000000F007005044216888604FE16EE0FFE73C
:10541000FDF794FC814602206168A0FB01510B4618
:105420001920A9FB00712A463846FAF73DFF64218E
:10543000B0FBF1F04FEA001A02206168A0FB0151B5
:105440000B461920A9FB00712A463846FAF72CFFB3
:10545000074602206168A0FB01510B461920A9FBF9
:1054600000B12A465846FAF71FFF6421B0FBF1F05D
:1054700000EBC00101EB0010A7EB8000322101EB33
:10548000C0006421B0FBF1F000F0F8000AEB400A24
:1054900002206168A0FB01510B461920A9FB007195
:1054A0002A463846FAF700FF074602206168A0FB4B
:1054B000015003461920A9FB00B12A465846FAF7C5
:1054C000F3FE6421B0FBF1F000EBC00101EB001032
:1054D000A7EB8000322101EBC0006421B0FBF1F0AA
:1054E00000F00700504421688860DFE070492068C0
:1054F000884203D06F49206888426BD1FDF72EFCAB
:10550000814604206168A0FB01510B461920A9FBCC
:1055100000712A463846FAF7C7FE824604206168C1
:10552000A0FB01510B461920A9FB00712A46384601
:10553000FAF7BAFE6421B0FBF1F000EBC00101EB19
:105540000010AAEB8000322101EB00106421B0FBB7
:10555000F1F000F0F00A04206168A0FB015003465E
:105560001920A9FB00712A463846FAF79DFE6421EE
:10557000B0FBF1F00AEB001A04206168A0FB0151B6
:105580000B461920A9FB00712A463846FAF78CFE13
:10559000074604206168A0FB015003461920A9FBBF
:1055A00000B12A465846FAF77FFE6421B0FBF1F0BD
:1055B00000EBC00101EB0010A7EB8000322101EBF2
:1055C00000106421B0FBF1F000F00F00504421689E
:1055D00088606BE0FDF7B2FB814604206168A0FBA8
:1055E000015003461920A9FB00712A463846FAF7F4
:1055F0005BFE824604206168A0FB0150034619202F
:10560000A9FB00712A463846FAF74EFE6421B0FB2A
:10561000F1F000EBC00101EB0010AAEB8000322199
:1056200001EB00106421B0FBF1F000F0F00A04205F
:105630006168A0FB015003461920A9FB00712A46AE
:105640003846FAF731FE6421B0FBF1F00AEB001A9C
:1056500004206168A0FB017003461920A9FB0050DB
:1056600001463A462846FAF71FFE074604206168BD
:10567000A0FB015003461920A9FB00B12A46584659
:10568000FAF712FE6421B0FBF1F000EBC00101EB70
:105690000010A7EB8000322101EB00106421B0FB69
:1056A000F1F000F00F00504421688860BDE8F88FE9
:1056B0000010014000140140014691F839002128F2
:1056C0002CD18868B0F5805F0FD10A6A1088C0F3CA
:1056D00008000B685860086918B9086A801C0862DD
:1056E00009E0086A401C086205E00B6A581C086261
:1056F00018780B685860C88C401E80B2C88458B9AE
:105700000868C06820F080000B68D8600868C0682E
:1057100040F040000B68D860002070470220FCE792
:105720002DE9F04104460D4617469846069E21E0B5
:10573000701CF8B12EB1FDF7CFF8A0EB0800B04215
:1057400018D92068C06820F4D0702168C86020682B
:10575000406920F0010021684861202084F8390068
:1057600084F83A0000BF002084F8380000BF03200E
:10577000BDE8F081206800682840A84201D10120DE
:1057800000E00020B842D3D00020F1E72DE9F04F2F
:10579000DDE90DC8DDF83C90DDE90B47DDE9095690
:1057A0004FF0000A05E011F80AB000F80AB00AF15B
:1057B000010ABAF1030FF6DB90F803A062F3020AC4
:1057C00080F803A090F803A02AF0380A0AF1380AFA
:1057D00080F803A0B0F803A063F3891AA0F803A02F
:1057E00090F804A065F3850A80F804A0B0F804A03E
:1057F00066F38E1AA0F804A0B0F805A064F3CF1ADF
:10580000A0F805A0B0F807A067F3090AA0F807A060
:10581000B0F808A06CF38C0AA0F808A0B0F809A0B2
:1058200068F34F1AA0F809A0B0F80BA06FF3090AAB
:10583000A0F80BA04FF0000BB0F80CA06BF38C0A93
:10584000A0F80CA0B0F80DA06BF34F1AA0F80DA0B3
:10585000DA4607E019F80AB000F10F0E0EF80AB0A8
:105860000AF1010AA245F5D3BDE8F08F10B5044650
:10587000A5202249087033204870002088702048F5
:105880000078C87005211D48FBF734FA40F201305A
:105890001C49C8804FF4887008811B48017819485A
:1058A0004181042181811548401D1649891D0A68DE
:1058B00002604968416015480460002007E0134910
:1058C00009680A5C00F10D010C4B5A54401C2D284C
:1058D000F5DB3C210948FBF7F7F900BF4FF47A7379
:1058E0003C2206490A48FEF7EFF90028F6D10448A1
:1058F0000078401C0249087010BD0000B65400201A
:10590000B40100203C5400205A500020BC0100206B
:10591000A00300200FB410B5D6B059A80090A52060
:105920008DF804005898C0EB0010801DC0B28DF8AF
:1059300005005898C0EB0010801D000A8DF8060085
:105940003D4800788DF80700052101A8FBF7D2F942
:1059500040F20130ADF8E2005898401E30B1012805
:1059600009D002280CD0032814D10EE040F2011017
:10597000ADF8E4000EE04FF48170ADF8E40009E00A
:1059800040F20310ADF8E40004E04FF48270ADF88B
:10599000E40000BF00BF2948017837A841810421F5
:1059A0008181DDF8E200CDF80900DDF8E600CDF8F0
:1059B0000D0000211CE0009A02F11000009092E816
:1059C0001900D268CDE934343692339033A81C4A9A
:1059D0001060002009E01A4A1268135CC1EB011242
:1059E0000D32024401ACA354401C0F28F3DB491CC8
:1059F00058988142DFDB5898C0EB001000F10F018E
:105A000001A8FBF761F900BF5898C0EB00100F30F8
:105A100082B24FF47A7301A90A48FEF755F90028BB
:105A2000F2D105480078401C03490870002000901E
:105A300056B010BC5DF814FBB40100205A50002091
:105A4000B8010020A00300202DE9F047894608ACEA
:105A500094E8F010DDF83480002104E019F801A08A
:105A600000F801A0491C0329F8DB10F8031F62F3BA
:105A700002010170017821F038010170018863F39F
:105A800089110180417864F3850141704FF0000A6B
:105A9000B0F801106AF38E11A0F8011041886AF382
:105AA000CF114180818865F309018180B0F805102C
:105AB00066F38C01A0F80510C18867F34F11C1800F
:105AC00001896FF309010181B0F809106CF38C01B1
:105AD000A0F80910418968F34F114181C01EBDE84B
